:020000040800F2
:100000000050002021020008270200082B020008EF
:100010009D020008A1020008E9020008000000009B
:100020000000000000000000000000003103000894
:10003000350300080000000039030008DD07000850
:100040004D0300084D0300084D0300084D03000850
:100050004D0300084D0300084D0300084D03000840
:100060004D0300084D0300084D0300084D03000830
:100070004D0300084D0300084D0300084D03000820
:100080004D0300084D0300084D0300084D03000810
:100090004D0300084D0300084D0300084D03000800
:1000A0004D0300084D0300084D0300084D030008F0
:1000B0004D0300084D0300084D0300084D030008E0
:1000C0004D0300084D0300084D0300084D030008D0
:1000D0004D0300081D1100084D0300084D030008E2
:1000E0004D0300084D0300084D0300080000000008
:1000F0000000000000000000000000000000000000
:1001000000000000000000005FF808F100B583B0B7
:1001100000F0AAF9304B314A1360314A1360314B79
:10012000314A32498B4204D21168196004330432D7
:10013000F7E72A4B1A682E4B9A4200D0FEE7284B6D
:100140001A682C4B9A42F9D1234B2B4A13602B4A45
:1001500013602B4B02E000221A600433294A9342B9
:10016000F9D3254B1B6813B9244B1B6803B1FEE779
:1001700000F086F9694601A800F022F9224C234BD1
:10018000E41AA4100025AC4214DC214C214BE41AE3
:10019000A4100025AC4213DC0099019801F008F886
:1001A00005461D4C1D4BE41AA410002C0EDC2846FD
:1001B00000F0E2F8154B53F8253098470135E2E797
:1001C000144B53F8253098470135E3E7013C134BB6
:1001D00053F824309847E8E7BABADECA0000002096
:1001E0009000002000000020241F00089400002040
:1001F000785634123254769894000020F40200208D
:1002000094000020F802002078030008780300081A
:1002100078030008780300087803000878030008D2
:1002200008B5FFF773FF00BEFEE71EF0040F0CBF1A
:10023000EFF30880EFF309807146414A10472DE93A
:10024000F04182B004468846124B5E6B9F6B9D6AFC
:100250001B6B13F0020F03D00E4BDB6A002B0CDB81
:100260000D4800F0B5F8CDF800803B4632462946EF
:10027000204600F009F900BEFEE74BF6AB6100F046
:100280007DF90028ECD0034B4FF00042DA6202B057
:10029000BDE8F08100ED00E0481E000800BEFEE76A
:1002A0001EF0040F0CBFEFF30880EFF309807146D6
:1002B000244A10472DE9F04182B004468846084B95
:1002C0005E6B9F6B9D6A074800F082F8CDF8008056
:1002D0003B4632462946204600F0D6F800BEFEE7EF
:1002E00000ED00E0581E00081EF0040F0CBFEFF3F5
:1002F0000880EFF309807146134A10472DE9F04159
:1003000082B004468846084B5E6B9F6B9D6A074827
:1003100000F05EF8CDF800803B4632462946204684
:1003200000F0B2F800BEFEE700ED00E0641E000839
:1003300000BEFEE700BEFEE700BEFEE7704700001D
:100340003F020008B5020008FD02000800BEFEE7FB
:10035000241F00080000002094000020241F000833
:10036000000000000000000094000020F8020020BF
:08037000000000000000000085
:10037800FEE7000008B503460C4A12685AB10B4A5A
:100388001068033323F003030344094A934206D851
:10039800064A136008BD054A06491160EFE701F0F7
:1003A80091F80C2303604FF0FF30F3E7980000202A
:1003B800004C0020F802002001230360014B0B6071
:1003C800704700BF040000200FB400B583B004AB31
:1003D80053F8042B01938021064801F0A5F8002862
:1003E80003DD0146034800F037F803B05DF804EB7D
:1003F80004B07047A00000202DE9F04385B0044602
:100408000F4643560BB10E461EE0042528462146EA
:10041800ABBE0446384605B0BDE8F08314F9011BAD
:1004280004AA1A4402F8101C0133AB42F6D304AAFA
:100438001344002203F8102C4FF00408E946404604
:100448004946ABBE8046761B002EE3D03546102EBB
:1004580028BF10250023E8E708B5FFF7CDFF08BD42
:1004680008B500F0FDF8024A024B9A6008BD00BFCB
:100478000000000800ED00E008B500F019F908BD1B
:10048800F8B504460D4617461E462748FFF79CFF59
:1004980021682648FFF798FF61682548FFF794FF11
:1004A800A1682448FFF790FFE1682348FFF78CFF15
:1004B80021692248FFF788FF61692148FFF784FF17
:1004C800A1692048FFF780FFE1691F48FFF77CFF1B
:1004D8001E48FFF779FF29461D48FFF775FF1D4C99
:1004E800E16A1D48FFF770FF216B1C48FFF76CFF9E
:1004F800E16B1B48FFF768FF15F0800F0AD115F470
:10050800004F0CD11748FFF75FFF06991648FFF711
:100518005BFFF8BD39461548FFF756FFEFE7314650
:100528001348FFF751FFEDE72C1D00083C1D00089C
:100538004C1D00085C1D00086C1D00087C1D00088F
:100548008C1D00089C1D0008AC1D0008BC1D00087F
:10055800C81D000800ED00E0D81D0008E81D0008CF
:10056800F81D0008281E0008301E0008081E000894
:10057800181E000883691A888A4201D00020704733
:100588000268033A012A03D80233836101207047C5
:100598000020704782B00023019300932C4A13680F
:1005A80043F4803313602A4B1B6803F40033009331
:1005B800019B01330193009B1BB9019BB3F5A06F0D
:1005C800F1D1234B1B6813F4003F06D0012300939D
:1005D800009B012B04D002B0704700230093F7E77B
:1005E8001C4B1A6842F010021A601A6822F00302C3
:1005F8001A601A6842F002021A60A3F580535A681A
:100608005A605A685A605A6842F480625A605A6856
:1006180022F47C125A605A6842F4E8125A601A6846
:1006280042F080721A600A4B1B6813F0007FFAD000
:10063800074B5A6822F003025A605A6842F00202D5
:100648005A60034B5B6803F00C03082BF9D1C2E72F
:10065800001002400020024008B5FFF79BFF08BDCC
:1006680008B5104B1A6842F001021A6059680E4A20
:100678000A405A601A6822F0847222F480321A60A2
:100688001A6822F480221A605A6822F4FE025A601C
:100698004FF41F029A60FFF7DFFF044B4FF0006230
:1006A8009A6008BD001002400000FFF800ED00E06D
:1006B8001F4B5B6803F00C03042B15D0082B17D0D5
:1006C8001BB11C4B1C4A1A6002E01A4B1A4A1A60EA
:1006D800174B5B68C3F30313184AD35CDAB21549A6
:1006E8000B68D3400B607047124B134A1A60EFE750
:1006F8000F4A53685268C3F38343023312F4803FAE
:100708000AD00B4A526812F4003F0BD00C4A02FB85
:1007180003F3084A1360DBE7094A02FB03F3054ABF
:100728001360D5E7044A02FB03F3024A1360CFE7DC
:10073800001002401C00002000127A000C0000206B
:1007480000093D00034A136843F0020313600020C8
:10075800704700BF10E000E0034A136843F001034C
:1007680013600020704700BF10E000E018B1034A92
:100778001060002070470120704700BF5002002021
:1007880008B5104B1B6813F0040F0ED10D4B1B68F6
:1007980013F0040F13D10C4A0023A0FB010100F051
:1007A8000FFD0A4B1860002008E001FB00F1084823
:1007B800A0FB0131890C054B1960002008BD012000
:1007C800FCE700BF10E000E000127A0014E000E04F
:1007D80083DE1B4308B5034B1B680BB1984708BD64
:1007E80000BFFCE7500200208379022B00F2E7806B
:1007F800F0B4012B00F09780002B4BD0022B00F0B7
:10080800DA80002049E0A3F10801C9B2072934D8E9
:100818006C4D6E6889000F278F4026EA07066E60C8
:100828006E6802FA01F13143696026E0654DEA68B5
:10083800012101FA04F422EA0404EC600133DBB27A
:100848000F2B29D802681C46DA4012F0010FF5D0A8
:10085800017901F00C01427902F003020A43072BE7
:10086800D1D8584D2E6899000F278F4026EA0706E1
:100878002E602E688A4032432A600279082AD5D031
:100888000A2ADBD14F4DEA68012101FA04F4144326
:10089800EC60D3E70023D3E70020F0BC7047A2F157
:1008A8000801C9B2484D6E6889000F278F4026EAB3
:1008B80007066E606E688B4033436B6026E0424DDE
:1008C800EB68012101FA04F423EA0404EC60013224
:1008D800D2B20E2A29D803681446D34013F0010F68
:1008E800F5D0017901F00C01437903F003030B43C0
:1008F800072AD4D8344D2E6891000F278F4026EA56
:1009080007062E602E688B4033432B600379082B33
:10091800D5D00A2BDBD12C4DEB68012101FA04F468
:100928001C43EC60D3E70022D3E70020B5E7A2F12F
:100938000801C9B2254D6E6889000F278F4026EA45
:1009480007066E606E688B4033436B6026E01F4D70
:10095800EB68012101FA04F423EA0404EC60013293
:10096800D2B20E2A29D803681446D34013F0010FD7
:10097800F5D0017901F00C01437903F003030B432F
:10098800072AD4D8114D2E6891000F278F4026EAE8
:1009980007062E602E688B4033432B600379082BA3
:1009A800D5D00A2BDBD1094DEB68012101FA04F4FB
:1009B8001C43EC60D3E70022D3E700206DE7012059
:1009C800704700BF00080140000C014000100140C2
:1009D8008379012B0FD01BB1022B17D00120704750
:1009E800012A04D0EAB9124B596110467047104BDE
:1009F800196100207047012A04D0A2B90D4B596132
:100A0800104670470B4B196100207047012A04D02B
:100A18005AB9094B596110467047074B19610020B4
:100A2800704700207047002070470020704700BFC3
:100A380000080140000C0140001001408379012B9F
:100A48000FD01BB1022B17D001207047104B9B68A9
:100A58000B4203D001231370002070470020107050
:100A680070470C4B9B680B4203D001231370002086
:100A78007047002010707047074B9B680B4202D1EB
:100A8800002010707047012313700020704700BFCA
:100A980000080140000C01400010014030B583B04F
:100AA80024480DF1070250F8101FFFF7C7FF9DF803
:100AB8000740B4B9204B1A78204B1B789A4217D0BC
:100AC8001C4D012229682846FFF782FF284600228C
:100AD80050F8081FFFF77CFF184B1B78184AD55CA5
:100AE8001AE01448002250F8101FFFF771FF1FE0AA
:100AF8000023144A1370114A137019E045FA04F2DE
:100B08000C4BE01C02F0010253F8301003EBC0005C
:100B1800FFF75EFF0134E4B2072CEFD90548012244
:100B280050F8101FFFF754FF044A1378013313706D
:100B380003B030BD741E00082302002020010020ED
:100B4800240100202101002010B582B02C480DF1AD
:100B5800070250F8101FFFF771FF9DF80730002BB0
:100B680043D1274C002221682046FFF731FF204659
:100B7800002250F8081FFFF72BFF2046012250F8EB
:100B8800181FFFF725FF2046002250F8201FFFF707
:100B98001FFF2046002250F8281FFFF719FF2046A4
:100BA800002250F8301FFFF713FF2046002250F8AC
:100BB800381FFFF70DFF2046002250F8401FFFF7AF
:100BC80007FF2046002250F8481FFFF701FF204684
:100BD800002250F8501FFFF7FBFE2046012250F874
:100BE800101FFFF7F5FE02B010BD0548002250F8AF
:100BF800101FFFF7EDFE034B00221A70F3E700BF4A
:100C0800741E0008210100208D4A13780133DBB2DD
:100C180013700E2B40F2118110B582B0894B1B78EE
:100C2800012B5CD023B1022B00F0B08002B010BDC4
:100C380085480DF1070250F8101FFFF7FFFE9DF8D9
:100C480007304BB18048002250F8101FFFF7C0FE54
:100C58007C4B01221A70E9E77B4C00222168204670
:100C6800FFF7B6FE2046002250F8081FFFF7B0FE37
:100C78002046002250F8181FFFF7AAFE204600223F
:100C880050F8201FFFF7A4FE2046002250F8281F26
:100C9800FFF79EFE2046012250F8301FFFF798FE0E
:100CA8002046012250F8381FFFF792FE2046012205
:100CB80050F8401FFFF78CFE2046002250F8481FCE
:100CC800FFF786FE2046002250F8501FFFF780FEEF
:100CD8002046012250F8101FFFF77AFEA6E75A486F
:100CE8000DF1070250F8101FFFF7A8FE9DF8073016
:100CF8004BB15548002250F8101FFFF769FE514BC1
:100D080002221A7092E7504C002221682046FFF711
:100D18005FFE2046002250F8081FFFF759FE2046C4
:100D2800002250F8181FFFF753FE2046012250F802
:100D3800201FFFF74DFE2046012250F8281FFFF71D
:100D480047FE2046012250F8301FFFF741FE20469B
:100D5800002250F8381FFFF73BFE2046002250F8CB
:100D6800401FFFF735FE2046002250F8481FFFF7C6
:100D78002FFE2046002250F8501FFFF729FE20467C
:100D8800012250F8101FFFF723FE4FE72E480DF100
:100D9800070250F8101FFFF751FE9DF807304BB1BE
:100DA8002948002250F8101FFFF712FE274B012296
:100DB8001A703BE7244C002221682046FFF708FE02
:100DC8002046002250F8081FFFF702FE20460122A5
:100DD80050F8181FFFF7FCFD2046002250F8201F8E
:100DE800FFF7F6FD2046002250F8281FFFF7F0FD18
:100DF8002046002250F8301FFFF7EAFD2046002267
:100E080050F8381FFFF7E4FD2046002250F8401F35
:100E1800FFF7DEFD2046002250F8481FFFF7D8FDF7
:100E28002046002250F8501FFFF7D2FD204601222D
:100E380050F8101FFFF7CCFDF8E600BF704700BF61
:100E48002402002022010020741E00082301002033
:100E580008B5094B1B785BB1084B1B78012B04D0F4
:100E6800022B07D1FFF770FE04E0FFF717FE01E041
:100E7800FFF7CAFE08BD00BF2301002021010020A2
:100E880038B5124B124A1A6002225A60114C204699
:100E9800FFF7AAFC054604F10800FFF7A5FC054387
:100EA800EDB204F11000FFF79FFC0543EDB20024FA
:100EB80007E0E01C074B03EBC000FFF795FC01348B
:100EC800E4B2072CF5D9284638BD00BF54020020EB
:100ED800590E0008741E000838B5002418E004EB09
:100EE80044035A000C48036813440C490D685B78A6
:100EF80045F8343003681344086800EBC4021979D4
:100F08001171997891715B795371FFF76DFC013418
:100F1800042CE4DD38BD00BF2000002024000020A0
:100F280008B5024B1868FFF75FFC08BD28000020D1
:100F3800044B5868C3085B0003F00203C0F3800049
:100F4800184370470010024070B52D4B5C68C4F31D
:100F58008346FFF7EDFF012805D000284DD0022871
:100F680003D0284670BD274DFBE714F4803F04D01A
:100F780014F4003F0ED0244B00E0244B0E2EF0D882
:100F8800DFE806F00A0C0F1114181B1D2024292D68
:100F9800323639001B4BF1E75D00E2E703EB43050E
:100FA800DFE79D00DDE703EB8305DAE703EB4303A7
:100FB8005D00D6E7C3EBC305D3E7DD00D1E703EB5C
:100FC800C305CEE703EB83035D00CAE703EB8305A4
:100FD80003EB4505C5E703EB43039D00C1E703EBBE
:100FE800430503EB8505BCE7C3EBC3035D00B8E726
:100FF800C3EB0315B5E71D01B3E7034DB1E700BF28
:10100800001002400024F40000127A0000093D009C
:10101800024A136801331360704700BFC8020020FA
:10102800184B00221A70174B1B78012B29D810B5C2
:101038000DE014480378144A02EB0312D168013911
:10104800D160013303700F4B1B78012B18D80E4A5F
:1010580002EB0312D268002AEBD10B4A02EB03120F
:101068005268012AE5D1084C1B01E3581B681B682C
:101078009847044B1B7804EB0314A368E360D8E794
:1010880010BD7047A4020020A802002038B5FFF761
:101098005BFF0446FFF756FB1348FFF767FB214643
:1010A80041F28830FFF76CFB002318E00F4901EB91
:1010B800C3020F4C1801251822500120686051F80E
:1010C8003310496800F1CC30A0FB01418908A960C0
:1010D8005268A0FB02129208EA600133DBB2012BCE
:1010E800E4D9002038BD00BF19100008D81E000838
:1010F800A802002008B5FFF72FFB054B1B68002B43
:10110800FBD0013B024A1360FFF78AFFF5E700BFF7
:10111800C802002008B5204B1B6813F0800F0CD0C4
:101128001E4B5B7A012B18D01C4B00221A605A60A8
:101138001A725A721A4B1B689847174B1B6813F0A0
:10114800200F09D0174B5B7A012B18D0154B0022C2
:101158005A601A601A725A7208BD104B5A681B7A84
:101168009A42E1D00D490B689A5C0B4B5A604A6869
:1011780001324A601A6822F080021A60DDE7094AE3
:101188005368127A9342E1D0034A5068054A1168BD
:10119800C85401335360DFE70038014038020020AB
:1011A800280200202C02002008B5FFF7B9FEFFF73F
:1011B80093FEFFF765FEFFF769FFFFF79BFF08BD8A
:1011C80053B94AB9002908BF00281CBF4FF0FF31A6
:1011D8004FF0FF3000F074B9ADF1080C6DE904CEA2
:1011E80000F006F8DDF804E0DDE9022304B07047FA
:1011F8002DE9F0478C460446089E002B4BD18A42C5
:10120800154667D9B2FA82F24AB1C2F1200701FA4B
:1012180002F320FA07F7954047EA030C94404FEA97
:10122800154EBCFBFEF71FFA85F80EFB17C307FB2C
:1012380008F9210C41EA0343994509D9EB1807F14C
:10124800FF3180F01C81994540F21981023F2B44FF
:10125800A3EB0903B3FBFEF00EFB103300FB08F110
:10126800A4B244EA0344A14209D92C1900F1FF337E
:1012780080F00781A14240F2048102382C4440EA00
:1012880007400027641A1EB10023D440C6E9004372
:101298003946BDE8F0878B4209D9002E00F0EC8072
:1012A8000027C6E9000138463946BDE8F087B3FA99
:1012B80083F7002F48D18B4202D3824200F2FB8091
:1012C800841A61EB030301209C46002EE0D0C6E996
:1012D800004CDDE702B9FFDEB2FA82F2002A40F0E4
:1012E8008F800127491B4FEA15481FFA85F9B1FB82
:1012F800F8FE08FB1E1109FB0EF04FEA144C4CEAED
:101308000143984207D9EB180EF1FF3102D29842F7
:1013180000F2CD808E461B1AB3FBF8F008FB1033A1
:1013280009FB00F9A4B244EA0344A14507D92C19E2
:1013380000F1FF3302D2A14500F2B6801846A4EBB3
:10134800090440EA0E409EE7C7F12005BB4022FA97
:1013580005FC4CEA030C21FA05F44FEA1C4EB4FBD9
:10136800FEF91FFA8CF80EFB194420FA05F3B94070
:1013780009FB08FA19430B0C43EA0444A24502FA94
:1013880007F200FA07F30BD91CEB040409F1FF304C
:1013980080F08880A24540F28580A9F10209644462
:1013A800A4EB0A04B4FBFEF00EFB104400FB08FAA1
:1013B80089B241EA0444A24508D91CEB040400F1AF
:1013C800FF316BD2A24569D90238644440EA09402A
:1013D800A0FB0289A4EB0A044C454146CE4654D3EF
:1013E80051D0002E69D05A1A64EB0E0404FA05F5A0
:1013F80022FA07F3FC401D43C6E90054002747E7DB
:101408009540C2F1200321FA03F04FEA1548B0FBDA
:10141800F8F71FFA85F908FB170024FA03F391403F
:1014280007FB09FC0B43190C41EA00418C4504FAFF
:1014380002F407D9691807F1FF3031D28C452FD94A
:10144800023F2944A1EB0C01B1FBF8F008FB101C8A
:1014580000FB09FE99B241EA0C418E4507D969188B
:1014680000F1FF3318D28E4516D902382944A1EB72
:101478000E0140EA07473AE73746304608E70F4685
:10148800E6E61846FBE64345ABD2B8EB020169EB4A
:101498000C0201389646A4E71846E8E7084695E79F
:1014A8000746CFE781467BE702382C4447E7AEF191
:1014B800020E2B442FE7384607E73746E8E600BF19
:1014C800704700BF014B1868704700BF2C00002010
:1014D80030B5141E05469BB0184605DA8B234FF02D
:1014E800FF302B601BB030BD4FF40273ADF80C30E9
:1014F8000CBF234604F1FF33029305934FF6FF73A5
:1015080000910491ADF80E3002461E9B69462846AC
:1015180000F072F8431CBCBF8B232B60002CE1D079
:101528000022009B1A70DDE707B5009313460A46B0
:10153800014603480068FFF7CBFF03B05DF804FBE2
:101548002C0000202DE9F0478E6882469E420C460A
:101558009046994637D88A8912F4906F31D0022381
:10156800256809696F1A656905EB450595FBF3F56B
:1015780009F101033B449D4238BF1D46530530D550
:10158800294600F035FB064650B90C234FF0FF30D2
:10159800CAF80030A38943F04003A381BDE8F0876F
:1015A8003A46216900F0B4FAA38923F4906343F022
:1015B8008003A38126613E4426604E466561ED1B8B
:1015C800A5604E4500D94E4632464146206800F097
:1015D800AAFAA36800209B1BA36023681E44266008
:1015E800DCE72A4600F05EFB06460028E2D12169C6
:1015F800504600F0B1FAC8E72DE9F04F9DB00393CB
:101608008B8980461D060C4616460FD50B696BB9AB
:10161800402100F0EDFA2060206128B90C23C8F8B9
:1016280000304FF0FF30C7E0402363610023099387
:1016380020238DF8293030234FF0010B8DF82A3004
:1016480037463D4615F8013B0BB1252B3ED1B7EB8C
:10165800060A0BD05346324621464046FFF772FF32
:10166800013000F0A480099B534409933B78002B78
:1016780000F09D8000234FF0FF32CDE9052304934D
:1016880007938DF853301A932F46052217F8011B3C
:101698004F4800F02FFA049BD0B9D90644BF202246
:1016A8008DF853201A0744BF2B228DF853202A782F
:1016B8002A2A15D02F4600200A25079A394611F8FC
:1016C800013B303B092B4DD9B8B10FE02F46B8E7A5
:1016D8003F4A3D46801A0BFA00F018430490D3E7BE
:1016E800039A111D12680391002A01DB079204E096
:1016F800524243F00203079204933B782E2B0CD1FD
:101708007B782A2B33D1039B02371A1D1B6803925F
:10171800002BB8BF4FF0FF3305932E4D03223978C5
:10172800284600F0E7F938B14023401B03FA00F0DF
:10173800049B0137034304933978062226487E1C0C
:101748008DF8281000F0D6F9002838D0234B13BBA9
:10175800039B073323F0070308330393099B4B4488
:1017680009936DE705FB023201200F46A6E7002327
:101778000A25194601370593384610F8012B303AE7
:10178800092A03D9002BC8D00591C6E705FB01211A
:1017980001230746F0E703AB00932246104B04A948
:1017A8004046AFF30080B0F1FF3F8146D6D1A38910
:1017B8005B063FF536AF09981DB0BDE8F08F03AB67
:1017C80000932246064B04A9404600F081F8EAE758
:1017D800E81E0008EE1E0008F21E000800000000C7
:1017E8004D1500082DE9F04791461F468A680B6998
:1017F80006469342B8BF1346C9F8003091F8432013
:101808000C46DDF8208012B10133C9F80030236896
:10181800990642BFD9F800300233C9F8003025686C
:1018280015F0060507D104F1190AE368D9F8002074
:101838009B1AAB4229DC94F843302268003318BF66
:10184800012392062ED404F1430239463046C0479C
:10185800013021D02368E56803F00603042B18BF84
:101868000025D9F800204FF0000908BFAD1AA36879
:10187800226908BF25EAE5759342C4BF9B1AED1893
:101888001A344D451AD1002008E001235246394642
:101898003046C047013003D14FF0FF30BDE8F08734
:1018A8000135C2E73020E11881F843005A1C94F84A
:1018B80045102244023382F84310C4E7012322462C
:1018C80039463046C0470130E6D009F10109D8E76A
:1018D8002DE9F04301F1430C0C46097E85B06E29D1
:1018E8001746064698460C9A00F0B38022D863291A
:1018F80036D00AD8002900F0B980582900F0838032
:1019080004F1420584F8421032E0642901D06929C3
:10191800F6D120681368050603F104012AD51B686F
:101928001160002B03DA2D225B4284F843206F48B4
:101938000A2239E0732900F09D8008D86F2920D049
:101948007029DDD1236843F02003236003E0752963
:1019580017D07829D4D17823654884F8453055E0E4
:10196800136804F14205191D1B68116084F84230A0
:1019780001238CE01B6810F0400F116018BF1BB2E8
:10198800CFE713682568181D1060280601D51B6865
:1019980002E06806FBD51B886F2914BF0A220822BB
:1019A8005248002184F843106568002DA560C0F2F4
:1019B8009580216821F004012160002B3DD1002D84
:1019C80040F08E806546082A0BD12368DB0708D5CE
:1019D800236962689A42DEBF302305F8013C05F1AD
:1019E800FF35ACEB05032361CDF800803B4603AA25
:1019F80021463046FFF7F6FE01304DD14FF0FF305B
:101A080005B0BDE8F083394884F8451013682168AB
:101A18001D1D1B6815600A060BD5CA0744BF41F097
:101A2800200121601BB9226822F0200222601022C6
:101A3800B7E74D0648BF9BB2EFE76546B3FBF2F147
:101A480002FB1133C35C05F8013D0B460029F5D1B3
:101A5800B9E713682568181D6169106028061B68B6
:101A680001D5196002E06A06FBD519800023654696
:101A78002361B9E71368191D11601D6862680021A8
:101A8800284600F037F808B1401B6060636823619E
:101A9800002384F84330A7E723692A4639463046AD
:101AA800C0470130AAD023689B0713D4E068039B82
:101AB8009842B8BF1846A3E701234A46394630463C
:101AC800C04701309AD00135E368039A9B1AAB42AC
:101AD800F2DCEBE7002504F11909F5E7002BACD19E
:101AE800037804F1420584F842306CE7F91E0008D7
:101AF8000A1F000810B5C9B202449042034601D13A
:101B0800002303E01C7801308C42F6D1184610BD42
:101B180010B5431E0A44914200D110BD11F8014B83
:101B280003F8014FF7E7884210B501EB020307D825
:101B3800421E99420AD011F8014B02F8014FF8E70A
:101B48008342F5D98118D21AD34200D110BD13F8B7
:101B5800014D01F8014DF7E738B50546002943D096
:101B680051F8043C0C1F002BB8BFE41800F0D0F863
:101B78001E4A1368104633B9636014602846BDE8EE
:101B8800384000F0C6B8A3420BD9216862189342C6
:101B980001BF1A685B685218226063600460EDE751
:101BA80013465A680AB1A242FAD919685818A042CD
:101BB8000BD120680144581882421960DED11068A0
:101BC8005268014419605A60D8E702D90C232B6087
:101BD800D4E7206821188A4201BF116852680918A1
:101BE800216062605C60C9E738BD00BF4402002024
:101BF80070B5CD1C25F0030508350C2D38BF0C2514
:101C0800002D064601DBA94203D90C2333600020CE
:101C180070BD00F07DF8214A1468214691B9204C26
:101C280023681BB9304600F063F820602946304627
:101C380000F05EF8431C24D10C233046336000F0DA
:101C480068F8E4E70B685B1B18D40B2B0FD90B6003
:101C5800CC18CD50304600F05CF804F10B00231D81
:101C680020F00700C31AD3D05A42E250D0E74B689D
:101C78008C4216BF636013600C46EBE70C4649685C
:101C8800CCE7C41C24F00304A04205D0211A304636
:101C980000F02EF80130CFD02560DBE744020020A9
:101CA80048020020F8B5074614460E4621B9BDE89B
:101CB800F8401146FFF79CBF22B9FFF74DFF2546B4
:101CC8002846F8BD00F026F8A0420FD22146384633
:101CD800FFF78EFF05460028F2D031462246FFF76F
:101CE80017FF31463846FFF737FFE9E73546E7E79C
:101CF80038B50023054C054608462360FEF73AFB35
:101D0800431C02D1236803B12B6038BD4C0200206C
:101D18007047704751F8043C181F002BBCBF0B5884
:101D2800C0187047537461636B206672616D653AC1
:101D38000A000000205230203D2020253038580A63
:101D480000000000205231203D2020253038580A5C
:101D580000000000205232203D2020253038580A4B
:101D680000000000205233203D2020253038580A3A
:101D78000000000020523132203D20253038580A1A
:101D880000000000204C52203D2020253038580A01
:101D980000000000205043203D2020253038580AFC
:101DA8000000000020505352203D20253038580AAA
:101DB800000000004653522F4641523A0A000000E4
:101DC8002043465352203D2020253038580A000031
:101DD8002048465352203D2020253038580A00001C
:101DE8002044465352203D2020253038580A000010
:101DF8002041465352203D2020253038580A000003
:101E0800204D4D464152203D20253038580A0000CB
:101E18002042464152203D2020253038580A0000F3
:101E28004D6973630A000000204C522F4558435FE8
:101E380052455455524E3D20253038580A0000006E
:101E48005B486172644661756C745D0A000000004D
:101E58005B4275734661756C745D0A005B5573610E
:101E680067654661756C745D0A0000000002000039
:101E7800030E000000040000030E0000000800002C
:101E8800030E000001000000030E00000200000025
:101E9800030E000004000000030E0000080000000C
:101EA800030E000010000000030E000020000000D8
:101EB800030E000040000000030E00008000000038
:101EC800030E0000020000000A0F000000000000DE
:101ED800DC020020F4010000E40200200000000001
:101EE800232D302B2000686C4C00656667454647FB
:101EF800003031323334353637383941424344457E
:101F080046003031323334353637383961626364EC
:031F1800656600FB
:081F1C00DCF2FF7F0100000070
:101F2400785634129C0000200000000000000000DD
:101F340000000000010203040607080900A24A0485
:101F4400840200205C020020CC1E00083000002027
:101F5400000000000000000000000000000000007D
:101F6400000000000000000000000000000000006D
:101F7400000000000000000000000000000000005D
:101F8400000000000000000000000000000000004D
:101F9400000000000000000000000000000000003D
:101FA400000000000000000000000000000000002D
:041FB4003254769895
:040000050800010DE1
:00000001FF
