:020000040800F2
:100000000050002021020008270200082B020008EF
:100010009D020008A1020008E9020008000000009B
:100020000000000000000000000000003103000894
:10003000350300080000000039030008750D0008B2
:100040004D0300084D0300084D0300084D03000850
:100050004D0300084D0300084D0300084D03000840
:100060004D0300084D0300084D0300084D03000830
:100070004D0300084D0300084D0300084D03000820
:100080004D0300084D0300084D0300084D03000810
:100090004D0300084D0300084D0300084D03000800
:1000A0004D0300084D0300084D0300084D030008F0
:1000B0004D0300084D0300084D0300084D030008E0
:1000C0004D0300084D0300084D0300084D030008D0
:1000D0004D030008E50D00084D0300084D0300081E
:1000E0004D0300084D0300084D0300080000000008
:1000F0000000000000000000000000000000000000
:1001000000000000000000005FF808F100B583B0B7
:1001100000F0AAF9304B314A1360314A1360314B79
:10012000314A32498B4204D21168196004330432D7
:10013000F7E72A4B1A682E4B9A4200D0FEE7284B6D
:100140001A682C4B9A42F9D1234B2B4A13602B4A45
:1001500013602B4B02E000221A600433294A9342B9
:10016000F9D3254B1B6813B9244B1B6803B1FEE779
:1001700000F086F9694601A800F022F9224C234BD1
:10018000E41AA4100025AC4214DC214C214BE41AE3
:10019000A4100025AC4213DC0099019800F020FB6C
:1001A00005461D4C1D4BE41AA410002C0EDC2846FD
:1001B00000F0E2F8154B53F8253098470135E2E797
:1001C000144B53F8253098470135E3E7013C134BB6
:1001D00053F824309847E8E7BABADECA0000002096
:1001E000A400002000000020E8210008A800002052
:1001F0007856341232547698A80000200C03002060
:10020000A8000020100300207803000878030008ED
:1002100078030008780300087803000878030008D2
:1002200008B5FFF773FF00BEFEE71EF0040F0CBF1A
:10023000EFF30880EFF309807146414A10472DE93A
:10024000F04182B004468846124B5E6B9F6B9D6AFC
:100250001B6B13F0020F03D00E4BDB6A002B0CDB81
:100260000D4800F0B5F8CDF800803B4632462946EF
:10027000204600F009F900BEFEE74BF6AB6100F046
:100280007DF90028ECD0034B4FF00042DA6202B057
:10029000BDE8F08100ED00E00421000800BEFEE7AB
:1002A0001EF0040F0CBFEFF30880EFF309807146D6
:1002B000244A10472DE9F04182B004468846084B95
:1002C0005E6B9F6B9D6A074800F082F8CDF8008056
:1002D0003B4632462946204600F0D6F800BEFEE7EF
:1002E00000ED00E0142100081EF0040F0CBFEFF336
:1002F0000880EFF309807146134A10472DE9F04159
:1003000082B004468846084B5E6B9F6B9D6A074827
:1003100000F05EF8CDF800803B4632462946204684
:1003200000F0B2F800BEFEE700ED00E0202100087A
:1003300000BEFEE700BEFEE700BEFEE7704700001D
:100340003F020008B5020008FD02000800BEFEE7FB
:10035000E821000800000020A8000020E821000893
:100360000000000000000000A80000201003002092
:08037000000000000000000085
:10037800FEE7000008B503460C4A12685AB10B4A5A
:100388001068033323F003030344094A934206D851
:10039800064A136008BD054A06491160EFE701F0F7
:1003A800D5F90C2303604FF0FF30F3E7AC000020D1
:1003B800004C00201003002001230360014B0B6058
:1003C800704700BF040000200FB400B583B004AB31
:1003D80053F8042B01938021064801F0E9F900281D
:1003E80003DD0146034800F037F803B05DF804EB7D
:1003F80004B07047B40000202DE9F04385B00446EE
:100408000F4643560BB10E461EE0042528462146EA
:10041800ABBE0446384605B0BDE8F08314F9011BAD
:1004280004AA1A4402F8101C0133AB42F6D304AAFA
:100438001344002203F8102C4FF00408E946404604
:100448004946ABBE8046761B002EE3D03546102EBB
:1004580028BF10250023E8E708B5FFF7CDFF08BD42
:1004680008B500F0FDF8024A024B9A6008BD00BFCB
:100478000000000800ED00E008B500F019F908BD1B
:10048800F8B504460D4617461E462748FFF79CFF59
:1004980021682648FFF798FF61682548FFF794FF11
:1004A800A1682448FFF790FFE1682348FFF78CFF15
:1004B80021692248FFF788FF61692148FFF784FF17
:1004C800A1692048FFF780FFE1691F48FFF77CFF1B
:1004D8001E48FFF779FF29461D48FFF775FF1D4C99
:1004E800E16A1D48FFF770FF216B1C48FFF76CFF9E
:1004F800E16B1B48FFF768FF15F0800F0AD115F470
:10050800004F0CD11748FFF75FFF06991648FFF711
:100518005BFFF8BD39461548FFF756FFEFE7314650
:100528001348FFF751FFEDE7E81F0008F81F000820
:100538000820000818200008282000083820000893
:100548004820000858200008682000087820000883
:100558008420000800ED00E094200008A420000892
:10056800B4200008E4200008EC200008C42000089B
:10057800D420000883691A888A4201D00020704775
:100588000268033A012A03D80233836101207047C5
:100598000020704782B00023019300932C4A13680F
:1005A80043F4803313602A4B1B6803F40033009331
:1005B800019B01330193009B1BB9019BB3F5A06F0D
:1005C800F1D1234B1B6813F4003F06D0012300939D
:1005D800009B012B04D002B0704700230093F7E77B
:1005E8001C4B1A6842F010021A601A6822F00302C3
:1005F8001A601A6842F002021A60A3F580535A681A
:100608005A605A685A605A6842F480625A605A6856
:1006180022F47C125A605A6842F4E8125A601A6846
:1006280042F080721A600A4B1B6813F0007FFAD000
:10063800074B5A6822F003025A605A6842F00202D5
:100648005A60034B5B6803F00C03082BF9D1C2E72F
:10065800001002400020024008B5FFF79BFF08BDCC
:1006680008B5104B1A6842F001021A6059680E4A20
:100678000A405A601A6822F0847222F480321A60A2
:100688001A6822F480221A605A6822F4FE025A601C
:100698004FF41F029A60FFF7DFFF044B4FF0006230
:1006A8009A6008BD001002400000FFF800ED00E06D
:1006B8001F4B5B6803F00C03042B15D0082B17D0D5
:1006C8001BB11C4B1C4A1A6002E01A4B1A4A1A60EA
:1006D800174B5B68C3F30313184AD35CDAB21549A6
:1006E8000B68D3400B607047124B134A1A60EFE750
:1006F8000F4A53685268C3F38343023312F4803FAE
:100708000AD00B4A526812F4003F0BD00C4A02FB85
:1007180003F3084A1360DBE7094A02FB03F3054ABF
:100728001360D5E7044A02FB03F3024A1360CFE7DC
:10073800001002401C00002000127A000C0000206B
:1007480000093D0010B5012000F050FE1B4B187049
:10075800012809D11A465B780133DBB25370FF2BAD
:1007680002D10022154B5A70154C164B1978206887
:1007780000F058FE21680B78134A137049785170BD
:10078800012B04D10121084600F0D2FD03E000212D
:10079800012000F0CDFD01210C4800F087FD0C4B35
:1007A8001968064A10780870196852784A70094A18
:1007B8001178186800F032FE10BD00BF74020020E6
:1007C800300000202100002070020020710200206B
:1007D800240000202000002008B500F00DFE00F0E5
:1007E80083FD00F037FD00F03DF800F06FF80020C1
:1007F80008BD00BF024A136801331360704700BF89
:10080800AC02002010B50022144B1A7020E0144BE3
:1008180003EB0213DB688BB9114B03EB02135B6824
:10082800012B0BD10E4C1201A3581B681B6898476B
:100838000A4B1B7804EB0314A368E36007480378AA
:10084800074A02EB0312D1680139D1600133037002
:10085800024B1A78022ADAD910BD00BF78020020AC
:100868007C02002038B500F0D3F9044600F036FACF
:10087800134800F047FA214641F2883000F04CFA5C
:10088800002318E00F4901EBC3020F4C180125188B
:1008980022500120686051F83310496800F1CC30CB
:1008A800A0FB01418908A9605268A0FB02129208C6
:1008B800EA600133DBB2022BE4D9002038BD00BF67
:1008C800FD070008302100087C02002008B500F070
:1008D8000FFA054B1B68002BFBD0013B024A136043
:1008E800FFF790FFF5E700BFAC020020F0B4837972
:1008F800022B00F2E780012B00F09580002B48D0F6
:10090800022B00F0DA80DFE002681D46DA4012F0C0
:10091800010F3BD0027902F00C01427902F0030288
:100928000A43072B0CD86A490F689C000F26A6407B
:1009380027EA06060E600E68A24032430A6010E0FD
:10094800A3F10801C9B207290BD8614C6668890070
:100958000F278F4026EA0706666066688A4032439A
:1009680062600279082A08D1594CE268012101FA2B
:1009780005F522EA0505E56008E00A2A06D154498A
:10098800CC68012202FA05F52543CD600133DBB2BC
:1009980000E000230F2BB7D9002096E00368154626
:1009A800D34013F0010F3BD0037903F00C014379D6
:1009B80003F003030B43072A0CD846490F68940039
:1009C8000F26A64027EA06060E600E68A3403343AA
:1009D8000B6010E0072A0ED9A2F10801C9B23D4CFC
:1009E800676889000F268E4027EA060666606668F3
:1009F8008B40334363600379082B08D1354CE36897
:100A0800012101FA05F523EA0505E56008E00A2B4E
:100A180006D13049CC68012303FA05F52543CD609A
:100A28000132D2B200E000220E2AB7D900204CE0F1
:100A380003681446D34013F0010F3BD0037903F049
:100A48000C01437903F003030B43072A0CD822490E
:100A58000F6895000F26AE4027EA06060E600E685E
:100A6800AB4033430B6010E0072A0ED9A2F108010E
:100A7800C9B2194D6F6889000F268E4027EA06060D
:100A88006E606E688B4033436B600379082B08D126
:100A9800114DEB68012101FA04F423EA0404EC6027
:100AA80008E00A2B06D10C49CD68012303FA04F4A7
:100AB8002C43CC600132D2B200E000220E2AB7D912
:100AC800002002E0012000E00020F0BC704700BFD9
:100AD80000080140000C0140001001408379012BFF
:100AE8000ED013B1022B16D020E0012A03D1134BEC
:100AF800196100207047DAB9104B5961002070471E
:100B0800012A03D10E4B19610020704792B90C4B92
:100B1800596100207047012A03D10A4B196100204E
:100B280070474AB9074B5961002070470120704748
:100B380000207047002070470020704700080140DF
:100B4800000C0140001001408379012B1BD013B128
:100B5800022B30D047E0254B9B680B4209D0037924
:100B6800082B03D101231370002070470020107058
:100B780070470379082B02D10020107070470123B9
:100B88001370002070471A4B9B68194209D00379EB
:100B9800082B03D101231370002070470020107028
:100BA80070470379082B02D1002010707047012389
:100BB8001370002070470F4B9B68194209D00379C6
:100BC800082B03D1012313700020704700201070F8
:100BD80070470379082B02D1002010707047012359
:100BE8001370002070470120704700BF00080140C3
:100BF800000C014000100140044B5868C3085B001A
:100C080003F00203C0F3800018447047001002404C
:100C1800F8B52E4B5C68C4F38347FFF7EDFF012856
:100C280004D000284FD0022802D04DE0284D4BE0D8
:100C3800C4F300432BB14BB1C4F340441CB924B1F5
:100C480004E0244E02E0244E00E0214E0E2F3BD853
:100C5800DFE807F0080A0D0F1216191B1E22272BB2
:100C68003034370075002FE006EB46052CE0B50060
:100C78002AE006EB860527E006EB4606750023E02A
:100C8800C6EBC60520E0F5001EE006EBC6051BE036
:100C980006EB8606750017E006EB860506EB4505AC
:100CA80012E006EB4606B5000EE006EB460506EB3D
:100CB800850509E0C6EBC606750005E0C6EB061516
:100CC80002E0350100E0044D2846F8BD001002405E
:100CD8000024F40000093D0000127A00034A13685A
:100CE80043F0020313600020704700BF10E000E0EB
:100CF800034A136843F0010313600020704700BFE4
:100D080010E000E018B1034A10600020704701208D
:100D1800704700BFB002002008B5104B1B6813F0E5
:100D2800040F09D001FB00F10D48A0FB0131890C2B
:100D38000C4B1960002008BD084B1B6813F0040F0A
:100D480009D1094A0023A0FB010100F06FFB054B04
:100D58001860002008BD012008BD00BF10E000E0B9
:100D680083DE1B4314E000E000127A0008B5034B51
:100D78001B680BB1984708BD00BF08BDB002002032
:100D880080B179B1084B5B7A63B9074B1860197267
:100D9800012159720078054A50605960D36843F0C0
:100DA8000803D360704700BF4401002000380140A9
:100DB80078B171B1074B5B7A5BB9064B1860197251
:100DC80000225A6001225A72034AD36843F004038E
:100DD800D3607047340100200038014008B5204B2B
:100DE8001B6813F0800F1ED01E4B5B7A012B11D1AC
:100DF8001C4B59681B7A99420CD01A4A1368595CE3
:100E0800174B59605168013151601A6822F080020D
:100E18001A6008E0134B00221A605A601A725A725C
:100E2800114B1B6898470E4B1B6813F0200F16D008
:100E38000E4B5B7A012B0CD10C4A5368127A934201
:100E480007D00A4A116806484068C85401335360FD
:100E580008BD064B00225A601A601A725A7208BD01
:100E680000380140440100204001002034010020E6
:100E780030B583B025480DF1070250F8101FFFF771
:100E880063FE9DF8073033B12048002250F8101F48
:100E9800FFF724FE37E01E4B1A781E4B1B789A4248
:100EA80005D100231C4A13701A4A13702BE0174C03
:100EB800012221682046FFF711FE2046002250F843
:100EC800081FFFF70BFE134B1B78144AD55C002450
:100ED8000DE045FA04F20D4BE01C02F0010253F854
:100EE800301003EBC000FFF7F9FD0134E4B2072C22
:100EF800EFD90648012250F8101FFFF7EFFD054A09
:100F080013780133137003B030BD00BF48210008C7
:100F180057020020530100205401002058010020EE
:100F280010B582B02B480DF1070250F8101FFFF7DB
:100F38000BFE9DF807304BB12648002250F8101FD1
:100F4800FFF7CCFD0022244B1A7041E0214C00220F
:100F580021682046FFF7C2FD2046002250F8081FEE
:100F6800FFF7BCFD2046012250F8181FFFF7B6FD19
:100F78002046002250F8201FFFF7B0FD204600222F
:100F880050F8281FFFF7AAFD2046002250F8301F0E
:100F9800FFF7A4FD2046002250F8381FFFF79EFDFA
:100FA8002046002250F8401FFFF798FD20460022F7
:100FB80050F8481FFFF792FD2046002250F8501FB6
:100FC800FFF78CFD2046012250F8101FFFF786FD21
:100FD80002B010BD482100085401002010B582B0AD
:100FE8008C4A13780133DBB213700E2B40F20E815A
:100FF800894B1B78012B5BD01BB1022B00F0AF8013
:1010080005E186480DF1070250F8101FFFF79CFD17
:101018009DF807304BB18148002250F8101FFFF7A8
:101028005DFD01227C4B1A70F1E07C4C00222168A6
:101038002046FFF753FD2046002250F8081FFFF70F
:101048004DFD2046002250F8181FFFF747FD2046A7
:10105800002250F8201FFFF741FD2046002250F8DB
:10106800281FFFF73BFD2046012250F8301FFFF7ED
:1010780035FD2046012250F8381FFFF72FFD204686
:10108800012250F8401FFFF729FD2046002250F8A2
:10109800481FFFF723FD2046002250F8501FFFF796
:1010A8001DFD2046012250F8101FFFF717FDAEE086
:1010B8005A480DF1070250F8101FFFF745FD9DF83B
:1010C80007304BB15548002250F8101FFFF706FDB6
:1010D8000222514B1A709AE0504C00222168204697
:1010E800FFF7FCFC2046002250F8081FFFF7F6FC2B
:1010F8002046002250F8181FFFF7F0FC2046012276
:1011080050F8201FFFF7EAFC2046012250F8281F5C
:10111800FFF7E4FC2046012250F8301FFFF7DEFC01
:101128002046002250F8381FFFF7D8FC204600223E
:1011380050F8401FFFF7D2FC2046002250F8481F05
:10114800FFF7CCFC2046002250F8501FFFF7C6FCE2
:101158002046012250F8101FFFF7C0FC57E02F4827
:101168000DF1070250F8101FFFF7EEFC9DF807304D
:101178004BB12A48002250F8101FFFF7AFFC01229C
:10118800274B1A7043E0254C002221682046FFF7C0
:10119800A5FC2046002250F8081FFFF79FFC2046B8
:1011A800012250F8181FFFF799FC2046002250F83A
:1011B800201FFFF793FC2046002250F8281FFFF756
:1011C8008DFC2046002250F8301FFFF787FC204690
:1011D800002250F8381FFFF781FC2046002250F803
:1011E800401FFFF77BFC2046002250F8481FFFF7FE
:1011F80075FC2046002250F8501FFFF76FFC204670
:10120800012250F8101FFFF769FC00E000BF02B090
:1012180010BD00BF520100205101002048210008E4
:101228005001002008B5094B1B7863B1084B1B78A7
:10123800012B02D0022B03D008BDFFF719FE08BD11
:10124800FFF76EFE08BDFFF7C9FE08BD500100207C
:101258005401002038B5124B124A1A6002225A6013
:10126800114C2046FFF742FB054604F10800FFF742
:101278003DFB2843C5B204F11000FFF737FB2843B4
:10128800C5B2002407E0E01C074B03EBC000FFF7E2
:101298002DFB0134E4B2072CF5D9284638BD00BF30
:1012A800B40200202D120008482100080B4B1B78BF
:1012B80083B910B40122094B1A70094B1970002325
:1012C80004E0C45C074AD4540133DBB28B42F8D340
:1012D800002001E00120704710BC70475401002035
:1012E800570200205801002038B5002418E00E48A5
:1012F800056804EB440253000C490A681A44527802
:1013080045F83420006800EBC40209680B441979D9
:101318001171997891715B795371FFF7E7FA01348C
:10132800042CE4DD38BD00BF380000203400002064
:1013380008B5C378012B11D1012906D10A46417895
:10134800104B1868FFF7CAFB08BDC9B9CA43D2B227
:1013580041780C4B1868FFF7C1FB08BD83B9012918
:1013680007D1CA43D2B24178064B1868FFF7B6FBDB
:1013780008BD29B90A464178024B1868FFF7AEFB49
:1013880008BD00BF3800002030B583B0002421E03C
:10139800124B1868254601AB1A190168FFF7D4FBF0
:1013A80002AB234413F8043C0D4A125D934204D166
:1013B8000C490A5D01320A5502E00021094A11551B
:1013C800084A525D052A01D1074A5355044A535524
:1013D8000134E4B2012CDBD903B030BD3C0000205D
:1013E8005C0200205802002060020020014B185CBB
:1013F800704700BF6002002008B5054B054A1A6017
:1014080005225A60044B1868FFF770FA08BD00BF40
:1014180004030020911300083C00002008B5FFF7E2
:10142800AFFC08BD08B5FFF7C3FC08BD53B94AB9FE
:10143800002908BF00281CBF4FF0FF314FF0FF30D4
:1014480000F082B9ADF1080C6DE904CE00F006F8A1
:10145800DDF804E0DDE9022304B070472DE9F04F20
:101468008C460C460546099E002B4FD18A421746EA
:101478006BD9B2FA82FEBEF1000F0BD0CEF1200577
:1014880020FA05F501FA0EF345EA030C02FA0EF705
:1014980000FA0EF5390CBCFBF1F0BAB201FB10C32F
:1014A80000FB02F84FEA154C4CEA0344A04509D961
:1014B800E41900F1FF3380F02881A04540F225812E
:1014C80002383C44C8EB0404B4FBF1F301FB134CB1
:1014D80003FB02F2ACB244EA0C418A4209D9C919A9
:1014E80003F1FF3480F00F818A4240F20C81023B05
:1014F80039448A1A43EA00400021002E63D022FAB8
:101508000EF2002386E80C00BDE8F08F8B4207D965
:10151800002E56D0002186E811000846BDE8F08F5D
:10152800B3FA83F1002940F09380A34202D38242A8
:1015380000F2FE80851A64EB03039C460120002E0E
:1015480041D086E82010BDE8F08F12B90127B7FB1B
:10155800F2F7B7FA87FEBEF1000F36D1E41B4FEA67
:1015680017481FFA87F90121B4FBF8F308FB134465
:1015780009FB03F24FEA154C4CEA0444A24207D98E
:10158800E41903F1FF3002D2A24200F2D3800346ED
:10159800A41AB4FBF8F008FB104809FB00F9ACB238
:1015A80044EA0842914507D9D21900F1FF3402D222
:1015B800914500F2BA802046C9EB020240EA034096
:1015C8009BE731463046BDE8F08F07FA0EF7CEF1BB
:1015D800200C24FA0CF34FEA1748B3FBF8FA1FFA69
:1015E80087F908FB1A3520FA0CFC04FA0EF40AFBFA
:1015F80009FB4CEA040C4FEA1C4242EA05439B45AE
:1016080000FA0EF50AD9DB190AF1FF3280F08B8057
:101618009B4540F28880AAF1020A3B44CBEB0303C6
:10162800B3FBF8F008FB103300FB09F41FFA8CFC3D
:101638004CEA03439C4207D9DB1900F1FF326ED212
:101648009C426CD902383B441C1B40EA0A418BE798
:10165800C1F1200E8B4022FA0EFC4CEA030C24FA4E
:101668000EF74FEA1C49B7FBF9FA1FFA8CF309FB8E
:101678001A7720FA0EF88C400AFB03F548EA0404AE
:101688004FEA144848EA0747BD4202FA01F200FA55
:1016980001FB09D917EB0C070AF1FF3041D2BD4213
:1016A8003FD9AAF1020A67447F1BB7FBF9F509FB8A
:1016B800157705FB03F3A4B244EA0747BB4208D9F0
:1016C80017EB0C0705F1FF3027D2BB4225D9023DA5
:1016D800674445EA0A40A0FB0289FF1A4F45454680
:1016E8004C4614D329D066B3BBEB050367EB04075C
:1016F80007FA0EFECB40CF404EEA030386E8880087
:101708000021BDE8F08F2346F3E61846DAE6B8EB89
:10171800020569EB0C040138E5E70546D9E71046F0
:1017280092E78246C0E7924678E702383A4443E7B0
:10173800084604E7023B3C442AE7C345E7D33C4656
:10174800D1E73146BDE8F08F704700BF014B1868FC
:10175800704700BFA000002030B5141E05469BB09E
:10176800184604DA8B232B604FF0FF301DE04FF44E
:101778000273ADF80C300CBF234604F1FF3302931B
:1017880005934FF6FF7300910491ADF80E300246B1
:101798001E9B6946284600F073F8431CBCBF8B2388
:1017A8002B6014B1009B00221A701BB030BD0000E2
:1017B80007B5009313460A46014603480068FFF739
:1017C800CBFF03B05DF804FBA00000202DE9F04733
:1017D8008E6882469E420C46914698463ED88A8933
:1017E80012F4906F3AD02568096902236F1A656967
:1017F80005EB450595FBF3F57B1C43449D4238BF3B
:101808001D4653050FD5294600F04AFB064698B1F8
:101818003A46216900F0D2FAA38923F4906343F091
:101828008003A38113E02A4600F098FB064670B9AE
:101838002169504600F0E8FA0C23CAF80030A38961
:101848004FF0FF3043F04003A381BDE8F0872661E5
:101858003E44266046466561ED1BA560464528BFA7
:10186800464649463246206800F0B3FAA36800208D
:101878009B1BA36023681E442660BDE8F087000018
:101888002DE9F04F9DB003938B8980461C060D46C9
:1018980016460DD50B695BB9402100F001FB2860A5
:1018A800286118B90C23C8F80030CDE040236B61DB
:1018B8000023099320238DF82930DFF89CB13023C9
:1018C8008DF82A3037463C4614F8013B1BB9B7EB74
:1018D800060910D003E0252BF9D02746F3E74B463D
:1018E800324629464046FFF771FF013000F0A780D5
:1018F800099B4B4409933B78002B00F0A080002300
:101908004FF0FF3204930793059206938DF85330F6
:101918001A930126052221784E4800F041FA671CE7
:10192800049B38B14B4A3C46801A06FA00F018432B
:101938000490EFE7D90644BF20228DF853201A07F8
:1019480044BF2B228DF8532022782A2A03D0079AE5
:1019580000210A200BE0039A111D12680391002A46
:1019680010DA524243F00200079204900BE0274637
:101978003B780134303B092B03D800FB02320121AC
:10198800F5E701B107923B782E2B1ED17B782A2BE5
:101998000AD1039B02371A1D1B680392002BB8BF9C
:1019A8004FF0FF33059310E0002319460593781C88
:1019B8000A2407463A780130303A092A03D804FB4A
:1019C80001210123F5E703B1059103223978224863
:1019D80000F0E6F940B14023CBEB000003FA00F039
:1019E800049B013718430490397806221B487E1C53
:1019F8008DF8281000F0D4F988B1194B33B9039B3E
:101A0800073323F007030833039314E003AB009371
:101A18002A46144B04A94046AFF3008007E003AB05
:101A280000932A460F4B04A9404600F093F8B0F102
:101A3800FF3F824603D0099B5344099342E7AB8991
:101A48005B0601D4099801E04FF0FF301DB0BDE8F6
:101A5800F08F00BFAC210008B2210008B6210008B1
:101A680000000000D51700082DE9F04791461F46F1
:101A78000A698B6806469342B8BF1346C9F8003016
:101A880091F843200C46DDF8208012B10133C9F8E3
:101A980000302368990642BFD9F800300233C9F8EC
:101AA8000030256815F0060510D104F1190A07E081
:101AB8000123524639463046C04701301AD0013515
:101AC800E368D9F800209B1A9D42F1DB94F8433073
:101AD8002268003318BF012392060FD5E118302081
:101AE80081F843005A1C94F845102244023382F8C6
:101AF800431003E04FF0FF30BDE8F08704F14302E4
:101B080039463046C0470130F4D02268D9F8005031
:101B1800E36802F00602042A08BF5D1B2269A36875
:101B28000CBF25EAE57500259342C4BF9B1AED1842
:101B38004FF000091A344D4509D001232246394691
:101B48003046C0470130D5D009F10109F3E700203C
:101B5800BDE8F0872DE9F04317460A7E85B06E2A66
:101B6800984606460C460C9B01F1430E00F0AE80E9
:101B780011D8632A22D009D8002A00F0BB80582A3D
:101B880040F0CA8081F84520834955E0642A1ED078
:101B9800692A1CD0C0E0732A00F0B08009D86F2AE7
:101BA8002ED0702A40F0B8800A6842F020020A60FD
:101BB8003EE0752A24D0782A3AD0ADE01A6801F1BF
:101BC8004205111D1960136884F84230A8E02168A5
:101BD8001A6811F0800F02D0111D196008E011F089
:101BE800400F02F10401196002D0B2F9003000E0A0
:101BF8001368002B3CDA2D225B4284F8432037E03F
:101C080021681A6811F0800F02D0111D196007E0D1
:101C180011F0400F02F10401196001D0138800E0AF
:101C28001368227E5C496F2A14BF0A2208221BE02F
:101C380078225A4984F845202268186812F0800FE3
:101C480000F104051D6003D1550601D5038800E0A5
:101C58000368D00744BF42F0200222601BB9226803
:101C680022F0200222601022002084F8430001E0C4
:101C780049490A226568002DA56008DB206820F024
:101C8800040020602BB9002D7DD175460CE0002B97
:101C980079D07546B3FBF2F002FB1033CB5C05F844
:101CA800013D03460028F5D1082A0BD12368DA073D
:101CB80008D5236962689A42DEBF302305F8013CE3
:101CC80005F1FF35C5EB0E0323612EE008681A689D
:101CD80010F0800F496903D0101D1860136808E0E0
:101CE80010F0400F02F104001860136801D0198049
:101CF80000E0196000232361754616E01A68111D7B
:101D08001960156800216268284600F049F808B192
:101D1800401B6060636804E004F1420584F84220D7
:101D280001232361002384F84330CDF800803B462B
:101D380003AA21463046FFF797FE013002D14FF043
:101D4800FF3026E023692A4639463046C04701302D
:101D5800F5D023689B0710D5002504F1190907E081
:101D680001234A4639463046C0470130E7D001359D
:101D7800E368039A9B1A9D42F2DBE068039B984252
:101D8800B8BF184605E00B7804F1420584F84230E4
:101D98008AE705B0BDE8F083BD210008CE21000820
:101DA80010B5C9B202449042034605D01C780130F0
:101DB8008C42F8D1184610BD002010BD10B5431E46
:101DC8000A44914204D011F8014B03F8014FF8E797
:101DD80010BD884210B501EB020301D8421E0BE08A
:101DE8009842FBD28118D21AD34204D013F8014D7D
:101DF80001F8014DF8E710BD994204D011F8014BE4
:101E080002F8014FF8E710BD38B50546002944D05F
:101E180051F8043C0C1F002BB8BFE41800F0D4F8AC
:101E28001E4A1368114613B96360146030E0A34278
:101E38000DD92268A018834201BF18685B68121880
:101E4800226063600C6023E0A24203D813465A68FC
:101E5800002AF9D118681918A1420BD12168014448
:101E680058188242196013D11068526801441960E9
:101E78005A600DE002D90C232B6009E02168601834
:101E8800824201BF106852680918216062605C6074
:101E98002846BDE8384000F098B838BD68020020F0
:101EA80070B5CD1C25F0030508350C2D38BF0C2561
:101EB800002D064601DBA94202D90C23336046E017
:101EC80000F082F8234B1C681A462146A1B10B6822
:101ED8005B1B0ED40B2B03D90B60CC18CD501EE026
:101EE8008C420BBF63684B681360636018BF0C4675
:101EF80015E00C464968E9E7174C23681BB93046DA
:101F080000F052F820602946304600F04DF8431C96
:101F180018D0C41C24F00304A0420DD1256030461B
:101F280000F053F804F10B00231D20F00700C31A3A
:101F38000ED05A42E25070BD211A304600F034F8F3
:101F48000130EBD10C233360304600F03EF800201E
:101F580070BD00BF6802002064020020F8B5074683
:101F680015460E4621B91146BDE8F840FFF798BF5F
:101F78001AB9FFF749FF2846F8BD00F027F885424F
:101F88000ED929463846FFF78BFF044650B1314633
:101F98002A46FFF713FF31463846FFF735FF01E0C1
:101FA8003046F8BD2046F8BD38B5064C0023054636
:101FB80008462360FEF7DEF9431C02D1236803B10B
:101FC8002B6038BD6C0200207047704751F8040C34
:101FD8000028BEBF091851F8043CC01804387047DF
:101FE800537461636B206672616D653A0A00000084
:101FF800205230203D2020253038580A00000000AB
:10200800205231203D2020253038580A0000000099
:10201800205232203D2020253038580A0000000088
:10202800205233203D2020253038580A0000000077
:1020380020523132203D20253038580A0000000057
:10204800204C52203D2020253038580A000000003E
:10205800205043203D2020253038580A0000000039
:1020680020505352203D20253038580A00000000E7
:102078004653522F4641523A0A0000002043465325
:1020880052203D2020253038580A00002048465369
:1020980052203D2020253038580A0000204446535D
:1020A80052203D2020253038580A00002041465350
:1020B80052203D2020253038580A0000204D4D463A
:1020C8004152203D20253038580A00002042464120
:1020D80052203D2020253038580A00004D6973638E
:1020E8000A000000204C522F4558435F5245545572
:1020F800524E3D20253038580A0000005B48617276
:10210800644661756C745D0A000000005B4275737B
:102118004661756C745D0A005B557361676546615D
:10212800756C745D0A0000000403002000000000C4
:102138002800002000000000B40200200000000079
:1021480000020000030E000000040000030E00005F
:1021580000080000030E000001000000030E00004C
:1021680002000000030E000004000000030E00003F
:1021780008000000030E000010000000030E00001D
:1021880020000000030E000040000000030E0000C5
:1021980080000000030E0000020000000A0F00008B
:1021A80000000000232D302B2000686C4C00656671
:1021B8006745464700303132333435363738394190
:1021C80042434445460030313233343536373839A6
:0721D80061626364656600AB
:0821E00084F2FF7F0100000002
:1021E80078563412B0000020000000000000000003
:1021F80000000000010203040607080900A24A04BF
:102208000202FFFF740200204D070008640000006E
:1022180070020020E4020020BC020020A021000877
:1022280000000000000000000000000000000000A6
:102238000000000000000000000000000000000096
:102248000000000000000000000000000000000086
:102258000000000000000000000000000000000076
:102268000000000000000000000000000000000066
:102278000000000000000000000000000000000056
:0822880040000020325476985A
:040000050800010DE1
:00000001FF
